:020000040800F2
:10000000C01000206D02000829800008373E00085B
:100010002580000821170008F18800080000000072
:10002000000000000000000000000000E98300085C
:10003000851700080000000065800008EB830008B9
:10004000870200088702000887020008870200086C
:10005000870200088702000887020008870200085C
:10006000870200088702000887020008870200084C
:10007000870200088702000887020008870200083C
:10008000870200088702000887020008870200082C
:10009000870200088702000887020008870200081C
:1000A000870200088702000887020008870200080C
:1000B00087020008118500088702000887020008EF
:1000C00087020008870200088702000887020008EC
:1000D00087020008A188000887020008870200083C
:1000E00087020008870200088702000887020008CC
:1000F00087020008870200088702000887020008BC
:1001000087020008870200088702000887020008AB
:10011000870200088702000887020008870200089B
:10012000870200088702000887020008870200088B
:10013000870200088702000887020008870200087B
:10014000870200088702000887020008870200086B
:10015000870200088702000887020008870200085B
:10016000870200088702000887020008870200084B
:1001700087020008870200088702000800000000CC
:10018000870200088702000887020008870200082B
:10019000870200088702000887020008870200081B
:1001A00087020008870200088702000800F002F8B2
:1001B00000F04CF80AA090E8000C82448344AAF1B5
:1001C0000107DA4501D100F041F8AFF2090EBAE8B3
:1001D0000F0013F0010F18BFFB1A43F0010318477B
:1001E00054EB000074EB0000103A24BF78C878C1CB
:1001F000FAD8520724BF30C830C144BF04680C602D
:10020000704700000023002400250026103A28BF74
:1002100078C1FBD8520728BF30C148BF0B60704778
:1002200066290AF08C81642900F062800020704702
:100230001FB50AF07AF900F0F7FB04000020002156
:1002400009F05EFBE0601FBD10B510BD00F0F4FCCE
:100250001146FFF7EDFF08F0D1FB00F012FD03B4EB
:10026000FFF7F2FF03BC08F0A1FB0000094880473C
:1002700009480047FEE7FEE7FEE7FEE7FEE7FEE788
:10028000FEE7FEE7FEE7FEE704480549054A064BA0
:1002900070470000AD840008AD010008C0040020D4
:1002A000C0100020C0060020C006002070470000DB
:1002B0000FB4044910B503AA029800F0A3FB10BCC8
:1002C0005DF814FB5C0000200FB41CB5074B06AAB8
:1002D0007B4469460090059800F07BFB002069464E
:1002E00000F08AFB1CBC5DF814FB00002507000031
:1002F0002DE9F0410646002410687529314616A5FF
:1003000010D0AFF30080002802DA404213A507E0C6
:1003100031688A0701D512A502E0490704D511A565
:10032000012401E0AFF3008000210A2206F1240736
:1003300009E0B0FBF2FCB0FBF2F302FB1C00303032
:1003400078541846491C0028F3D123462A463046E3
:10035000BDE8F04100F0D0B8000000002D00000022
:100360002B000000200000002DE9F0474FF0000AAC
:1003700089460446C0F820A02046E1688847002846
:1003800076D0252806D0D4E901219047206A401C68
:100390002062F1E7E168204600258847C4F81CA0E8
:1003A00006460027C4F818A02A2E09D0304608F0C7
:1003B000F6FA38B304EB8708303EC8F8186019E045
:1003C00059F8041B204604EB87029161E1688847D5
:1003D000012F064618D1E069002820DA25F0200513
:1003E0001DE0D8F8180000EB800006EB4000303824
:1003F000C8F818002046E1688847064608F0CFFA9A
:100400000028EED1012F0AD02E2E08D12046E16817
:1004100088477F1C0646022F45F02005C4DBA069F3
:10042000002803DA404245F00105A061E80701D049
:1004300025F01005B6B1A6F14100192802D82036E2
:1004400045F400654A463146204625604D46FFF793
:10045000E7FE58B1012806D0ED1D25F0070000F198
:10046000080989E704E005F1040985E730468AE7D1
:10047000206ABDE8F08710B5203AC0F00B80B1E8E3
:100480001850203AA0E81850B1E81850A0E81850C9
:10049000BFF4F5AF5FEA027C24BFB1E81850A0E8D2
:1004A000185044BF18C918C0BDE810405FEA827CEC
:1004B00024BF51F8043B40F8043B08BF7047D20703
:1004C00028BF31F8023B48BF11F8012B28BF20F8A4
:1004D000023B48BF00F8012B7047704770477047D8
:1004E000704710B500F0A4FA006810BD10B50446BE
:1004F00000F09EFA046010BD2DE9F0470D469946C4
:100500009246044600F124080168880604D5E06993
:1005100021F01001216000E00120A84201DD471B0D
:1005200000E00027A1697A1902EB0900081AA0610E
:100530002078C00602D42046AFF30080002608E0F1
:10054000D4E901211AF806009047206A401C761C65
:1005500020624E45F4DB2078C0060AD52046AFF372
:10056000008006E0D4E9012130209047206A401C39
:100570002062381EA7F10107F4DC07E0D4E901216D
:1005800018F805009047206A401C2062281EA5F13B
:100590000105F3DC2046AFF300802078000602D589
:1005A0000220BDE8F0870120FBE770472DE9FF4FEF
:1005B0000C461E464FF0FF378BB0D2E90001DDF844
:1005C00060800A908A46C1F30A5505B93D4600216C
:1005D00008464FF00000BAF1000F00F4400005DAC1
:1005E00000EB80004FF4400101EA50004FEA9059BF
:1005F000B9F1010F00DDB9460A9850EA4A000ED061
:1006000044F61050A5F2FF3545432F14B8F1000F02
:100610001ED07542291E1EDDC9F100021CE0B8F192
:10062000010F4FF0000001D0302103E0F24305E05C
:100630002154401CB042FBDB3046002200212154F3
:100640000B99C1F80880C1E900200FB0BDE8F08F18
:10065000BD1B6D1CDEE74A4600DA694206A800F0C1
:1006600071FA06AB93E8070003AB83E80700504636
:100670000A9900F04FFB8DE80700A0F500501F38E5
:1006800000900398002D0ADD42F21F014A460844FB
:10069000002303A90390684600F0B8FD09E0A0F527
:1006A00000504A461F38002303A90390684600F013
:1006B000C2FD8DE807000004000C03D04FF0FF30AE
:1006C000410800E01046B8F1000F03D0002200926C
:1006D00015461EE0751E05D400F0AEF930326255A5
:1006E0006D1EF9D5B3460122084302D000227F1CBB
:1006F00004E02078302801D100227F1E002A0997CB
:1007000084D01DE0112D07DA00F096F930326255E1
:100710006D1C50EA0102F5D1084302D00098C8B11F
:100720000EE00021681E05E0235C625C63542254E5
:10073000401E491C8142F7DBAB46A81B401E0990B6
:10074000002004F80B000B98099AC0F80880C0E953
:10075000002B7AE711264FF0000857E72DE9F04FFC
:1007600088460446D21D22F0070191B0D1E900016C
:10077000CDE90A0108F0BEF802460B98C00F01D07F
:100780002D2007E02068810701D52B2002E02021E1
:1007900001EAC000032A099001D0072A05DB0346BD
:1007A0004146204600F08EF90BE12078800601D505
:1007B000E06900E00620B8F1650F814606D0B8F187
:1007C000660F18D0B8F1670F70D131E00020B9F191
:1007D000110F009001DB112301E009F101030AAAC6
:1007E00001A90CA8FFF7E2FEDDE90C70002609F173
:1007F0000105834647E001204B4600904FF000473B
:100800000AAA01A90CA8FFF7D1FEDDE90DB00C99E9
:100810005D46002610B909F101000D18B9EB05007D
:1008200003D4C0F1FF3609F10105A5EB09002BE067
:10083000B9F1010F01DA4FF001090020B9F1110FF0
:100840000090484601DD112300E003460AAA01A9F1
:100850000CA8FFF7ABFEDDE90C704D460026834681
:10086000207800070AD4AB4500DA5D4601A8012DC7
:1008700004DD411911F8011C302907D04F4502DA77
:1008800017F1040F04DA012082460FE06D1EEEE737
:10089000002F02DCED1B3E4403E0781CA84200DD83
:1008A0007D1CB81B00F1010A4FF0004720780007BB
:1008B00003D4AA4501DB4FF0FF3A0021B7F1004F06
:1008C0000DF143088DF8431024D002202B23002F74
:1008D00001DA7F422D230A21021EA0F1010000DC73
:1008E0005FB197FBF1FC97FBF1F201FB1C7C174613
:1008F0000CF1300C08F801CDEEE7A8F1010003700F
:100900002188090501D5452100E06521A0F10108F4
:1009100000F8011C09980FA9A1EB0807FF1D00B101
:100920000120411901EBEA70A1693844081A401E00
:10093000A0612078C00602D42046AFF30080099859
:1009400028B1D4E901219047206A401C2062207818
:10095000C00622D52046AFF300801EE0002E04DB47
:10096000B34502DD01A8805D00E03020D4E901211B
:100970009047206A401C2062761CAAF101005FEAC1
:10098000000A0AD100F050F8C0680168405CD4E960
:1009900001219047206A401C2062281EA5F1010514
:1009A000DCDC07E0D4E9012118F8010B9047206A4C
:1009B000401C2062381EA7F10107F3DC2046AFF38C
:1009C0000080032011B041E601694A1C02610878E9
:1009D000704700B58FB0CDE901310021059105497F
:1009E0007944CDE9031011466846FFF7BDFC0FB00E
:1009F00000BD0000E5FFFFFF0A6802F8010B0A6076
:100A000070470000074B70B50D467B44FFF7E1FFD0
:100A10000446284600F008F910B14FF0FF3070BDD1
:100A2000204670BDD37F000000487047800400203E
:100A3000004870476004002030B5B0F10A024FEA68
:100A4000900E71F100034EEA817EB0EB0E0061EB77
:100A500091014FEA101E4EEA017E10EB0E0041EBB1
:100A600011114FEA102E4EEA016E10EB0E0041EB11
:100A700011214FEA104E4EEA014E10EB0E0041EBF1
:100A80001141401841F100014FEAD00040EA4170A5
:100A90004FEAD10110EB80054FEA810444EA9074DB
:100AA00044EB01046D1944EB0404521BA3414FF0C5
:100AB000000348BF0A3200D530BD401C41F100019F
:100AC00030BD00002DE9F0411F46044603260168B1
:100AD000072A01F4006004DB08B116A505E016A59D
:100AE00003E008B115A500E015A521F01000206075
:100AF000A069C01EA0610FB1401EA0612046AFF3E7
:100B000000804FB1D4E9012138469047206A401C4B
:100B10002062C01C206206E0206AFAE7D4E90121C5
:100B200015F8010B9047761EF8D22046AFF30080EF
:100B3000BDE8F0814E414E006E616E00494E4600A8
:100B4000696E66002DE9F047814616468AB0354841
:100B500078440DC88DE80D0032487844801C03AC01
:100B60000DC884E80D0041F69B300844372190FB06
:100B7000F1F290FBF1F5A5F1800501FB12041B3C9D
:100B800002D56442012000E00020DFF898A08046F2
:100B90000027FA44AAF1BE0A0EE0E0070AD0324666
:100BA000684607EB470101230AEB810100F043FB94
:100BB0008DE8070064107F1C002CEED1194F7F4494
:100BC000AE3F19E0E80715D007EB04100DF1180A45
:100BD00090E80E008AE80E00C068F04201D1981932
:100BE00008903246012306A903A800F024FB03ABBA
:100BF00083E807006D10641C002DE3D14FF0010362
:100C000032466946B8F1000F03A802D000F0FEFAA0
:100C100001E000F010FBC9E90001C9F808200AB0A2
:100C2000BDE8F087C8E10000007B00F0800070475D
:100C300000487047600400207546FFF7F9FFAE4694
:100C400005006946534620F00700854618B020B5D8
:100C5000FFF71AFBBDE820404FF000064FF00007F9
:100C60004FF000084FF0000B21F00701AC46ACE854
:100C7000C009ACE8C009ACE8C009ACE8C0098D46C1
:100C8000704710B50446AFF300802046BDE8104021
:100C9000FFF7E5BA4FF0013C50F8042B51F8043B44
:100CA0009A4221D1A2EB0C03934313EACC1317D140
:100CB00050F8042B51F8043B9A4215D1A2EB0C03D7
:100CC000934313EACC130BD150F8042B51F8043B97
:100CD0009A4209D1A2EB0C03934313EACC13DBD065
:100CE0004FF00000704700BFD01A01BAB1FA81F18D
:100CF00001F0180122FA01F0CB40C1F12001DBB272
:100D0000C0B2C01A2CFA01F3D11A914311EAC311EF
:100D1000E6D170475FEA400C08BF91F0000F4FEA40
:100D20008C234FEAC12243EA51514FEA1C5018BFAD
:100D300000F5F0404FEA300018BF41F000415FEA93
:100D40006C5C00F02980BCF1FF3F08BF40F08040A0
:100D50007047130C06BF12044FF0100C4FF0000C3C
:100D6000130E04BF12020CF1080C130F04BF120182
:100D70000CF1040C930F04BF92000CF1020CD30F82
:100D800004BF52000CF1010C11464FF00002A0F11B
:100D90001F00A0EB0C00704711F0004F08BF704718
:100DA00031F000413FF4D5AF0B0C06BF09044FF002
:100DB000100C4FF0000C0B0E04BF09020CF1080CD4
:100DC0000B0F04BF09010CF1040C8B0F04BF890049
:100DD0000CF1020CCB0F04BF49000CF1010CCCF15B
:100DE0002003A0EB0C0022FA03F302FA0CF241EA12
:100DF000030100F10100704720F07F4C80EA0300FE
:100E000023F07F47ACEB070303F57C5300F0004071
:100E100003F1FF032DE980494FEA154B09B44FEA6E
:100E2000144325EA0B4E24EA03480FF2042606EB8E
:100E3000132749083E785FEA320203FB0667C7F5CD
:100E4000000707FB06F64FEA54374FEAD64606F18D
:100E5000020607FB066CCCF1005C4FEA1C472CEA4B
:100E6000074C07FB06F40CFB06F504EB15464FEAAE
:100E7000961634BF00204FF000404FEAD13706FBF2
:100E800007FC4FEA1C4C0CFB0BF7D21B03FB0CF7C7
:100E900061EB07010CFB0EF7B0EB074072EB17425A
:100EA0000CFB08F734BFA2EB0742B2EB074261EB41
:100EB00017414FEA0C444FEA910706FB07FC4FEA43
:100EC0001C4C0CFB0BF7B0EBC74072EB573203FB2B
:100ED0000CF734BFA2EBC742B2EBC74261EB57310C
:100EE0000CFB0EF7B0EBC70072EB57720CFB08F768
:100EF00034BFA2EBC702B2EBC70261EB5771039F8D
:100F00004FEA816141EA921104EBCC044FEAD137F8
:100F10004FEA826206FB07FC42EA90124FEA8060C9
:100F20004FEA1C4C0CFB0BF7D21B03FB0CF761EBDD
:100F300007010CFB0EF7B0EB074072EB17420CFBFE
:100F400008F734BFA2EB0742B2EB074261EB17414F
:100F50004FEA8C554FEA910704EB9C2406FB07FCF3
:100F60004FEA1C4C0CFB0BF7B0EBC74072EB57324F
:100F700003FB0CF734BFA2EBC742B2EBC74261EBF5
:100F800057310CFB0EF7B0EBC70072EB57720CFB3E
:100F900008F734BFA2EBC702B2EBC70261EB57718F
:100FA00015EB4C254FEA816141EA92114FEA8262CA
:100FB0004FEAD13742EA901206FB07FC44F10004E5
:100FC0004FEA80604FEA1C4C0CFB0BF7D21B03FB73
:100FD0000CF761EB07010CFB0EF7B0EB074072EB6F
:100FE00017420CFB08F734BFA2EB0742B2EB0742F3
:100FF00061EB174115EB1C154FEA813141EA924133
:101000004FEA823242EA90424FEA80304FEA0C7651
:1010100044F1000448EA03434EEA0B484FF0000E47
:10102000B2EB080C71EB030724BF624639464EEB66
:101030000E0E4FF0000B0018524149414BEB0B0BC9
:10104000B2EB080C71EB03077BF1000B24BF624687
:1010500039464EEB0E0E4FF0000B0018524149413D
:101060004BEB0B0BB2EB080C71EB03077BF1000BA6
:1010700024BF624639464EEB0E0E51EA020718BFF6
:1010800046F0010616EB0E7655F1000254F1000110
:1010900003D5BDE88901BDE80088BDE88901BDE848
:1010A0000048B619524141EB0101A3F10103704719
:1010B00080807F7E7D7C7B7A797877767675747395
:1010C000727171706F6E6E6D6C6C6B6A6A69686854
:1010D000676666656464636362616160605F5F5EEA
:1010E0005E5D5D5C5C5B5B5A5A5959585857575660
:1010F00056555555545453535252525151505050C5
:101100004F4F4F4E4E4D4D4D4C4C4C4B4B4B4A4A16
:101110004A4949494848484747474746464645455A
:101120004544444444434343434242424241414193
:10113000002B9C4630D477002BD01CB54FEA3707E4
:1011400003B44FF010004FF01001BAF1000F06D0B9
:10115000BCF1000FDCBF40F0080040F008014FF088
:1011600000000FBCBDE810400BF1010BBBF1010FFB
:1011700008BF5FEA170722BF12F1010211F1010156
:101180004FF0004143F1000300F0004043EA00004B
:101190007047F9D35708D0E746EA064613F1400FE7
:1011A0004FEA16461FDD13F1200FDFBF16430A4634
:1011B000002120335B42BED0C3F1200746EA064639
:1011C00002FA07F74FEA164646EA0706C3F1200778
:1011D00022FA03F201FA07F721FA03F14FF00003B4
:1011E00042EA0702A7E746EA020646EA06464FEA4F
:1011F000164646EA0106BCBF46EA0646360C4FF0E4
:1012000000034FF000024FF0000194E72DE9804CFD
:101210009A46934670B491E8380007C831EA400C0A
:1012200048BF34EA430C03D5FFF7E6FDFFF780FF24
:10123000F0BCBDE8008C2DE9804C9A46934670B412
:1012400091E8380007C810F0804F08BF13F0804FB6
:1012500003D100F005F8FFF76BFFF0BCBDE8008C90
:1012600020F07F4780EA030023F07F4C07EB0C035C
:10127000A3F57C5300F00040A3F1FE0392F0000FB1
:1012800000F0B38095F0000F00F077802DE9014960
:101290004FEA11404FEA144621EA004800FB06FCE1
:1012A00024EA064708FB06F607FB08F800FB07F7E9
:1012B00018EB06484CEB164C4FEA124B18EB07485C
:1012C0004FEA15464CEB174022EA0B4E0BFB06FC8F
:1012D00025EA06470EFB06F607FB0EFE0BFB07F79B
:1012E0001EEB064E4CEB164C4FF000061EEB074E65
:1012F0004CEB174B18EB0B0840F1000018EB0E0BF2
:1013000058EB000840F100008F1A4FF000013CBF7D
:10131000C943661B14BFB5EB040C00213CBFC94395
:10132000F61B4FEA17444EEA8E0E27EA04454FEAB1
:101330001C4704FB07622CEA074C05FB07F70CFB74
:1013400005F604FB0CFC16EB074642EB174216EBC6
:101350000C4642EB1C421BEB060658EB02024141D5
:1013600046EA9E0601D5BDE80189B619524141EB16
:101370000101A3F10103BDE801894FEA14454FEAD9
:10138000114724EA054621EA074C05FB07F406FB52
:1013900007F70CFB06F105FB0CFC11EB074144EBD6
:1013A00017444FEA124711EB0C4144EB1C4422EA6C
:1013B000074C05FB07F206FB07F70CFB06F605FBDF
:1013C0000CFC16EB074642EB174216EB0C4642EBC1
:1013D0001C456A1854F1000148BF7047B6195241C4
:1013E00041EB0101A3F10103704795F0000F37D0E5
:1013F0004FEA11424FEA144721EA024624EA074C19
:1014000002FB07F106FB07F70CFB06F402FB0CFCE2
:1014100014EB074441EB17414FEA154714EB0C441A
:1014200041EB1C4125EA074C02FB07F506FB07F7D9
:101430000CFB06F602FB0CFC16EB074645EB1745CA
:1014400016EB0C4645EB1C42121951F1000148BF46
:101450007047B619524141EB0101A3F101037047F6
:101460004FEA14454FEA114724EA054621EA074CA2
:1014700005FB07F106FB07F70CFB06F24FF0000631
:1014800005FB0CFC12EB074241EB174112EB0C423F
:1014900051EB1C4148BF7047921841EB0101A3F189
:1014A0000103704770B50546AC6B94F83D002528E4
:1014B00003D1352084F83D0002E0152084F83D007A
:1014C000204600F001FC70BD70B50546AC6B0420F1
:1014D00084F83D00206C40F002002064204600F0BB
:1014E000F5FB70BD70B50446A56B284600F0EDFB1A
:1014F00070BD00005A49096821F44031594AC2F8C8
:1015000004131146D1F8041342681143544A116080
:101510000168496821F480710268516001684A6875
:10152000016942EA0121026851600168496821F0BD
:10153000407102685160016849688268114302681D
:1015400051600168896821F4006102689160016856
:101550008968C268114302689160434AC16A914236
:1015600018D00168896821F0706102689160016893
:101570008968C26A1143026891600168896821F034
:1015800040510268916001688968026B11430268EA
:1015900091600BE00168896821F0706102689160D8
:1015A0000168896821F0405102689160016889688A
:1015B00021F002010268916001688A68816942EA4B
:1015C000410102689160416AD1B10168496841F402
:1015D0000061026851600168496821F46041026855
:1015E000516001684A68816A491E4FF4604393FA6A
:1015F000A3F3B3FA83F399400A4301684A6005E014
:101600000168496821F40061026851600168C96A93
:1016100021F470010268D1620168CA6A018C491E16
:1016200042EA01510268D1620168896821F40071BF
:101630000268916001688A68C16942EA41210268D2
:1016400091600168896821F4806102689160016895
:101650008A68416942EA812102689160704700000E
:1016600004230140002001400100000F10B586B0A6
:10167000044600BF7CB900BF0020009025480068E8
:1016800040F00200234908600846006800F00200AC
:10169000009000BF23E0012C0FD100BF002000907C
:1016A0001C48006840F020001A490860084600689D
:1016B00000F02000009000BF11E0022C0FD100BF0D
:1016C000002000901348006840F4807011490860C1
:1016D0000846006800F48070009000BF00BF00BFA3
:1016E0000D4830F81400019001200290039003206F
:1016F00004900A4951F8240001A900F061FD064A4E
:1017000032F81410054A52F82400012200F06EFE4F
:1017100006B010BD3038024082EC00084C000020BA
:1017200000BFFEE70146087810381823B0FBF3F23B
:101730000848805C4865032A05D908686FF30900EA
:10174000001D086503E008686FF309000865086D6F
:101750007047000098EC000830B50468246824F451
:10176000802405682C60046863608468402C04D180
:101770000468A2600468E16003E00468A160046892
:10178000E26030BD7047000070B504461D4600237E
:10179000B5F5804F13D154F822300C480340D1E9FD
:1017A000000640EA06108E6840EA06208E8940EA6C
:1017B00006408E693043034344F8223003E06FF063
:1017C000704044F82200002070BD00000000F0CFFF
:1017D00010B502460023086852F820301B48034029
:1017E000D1E901042043CC6820430C6920434C69B3
:1017F00020438C692043CC6920430C6A20434C6A07
:1018000020438C6A2043CC6A2043CC6B20430C6B72
:1018100020434C6B204303438868082801D143F0E0
:101820004003086842F82030486BB0F5801F0AD1A9
:10183000086840B14FF4807008614C6B0869204320
:10184000146820431060002010BD00008000E0FFFD
:1018500030B5034614460022601C53F8202002F0E5
:101860004042D1E9000540EA05108D6840EA0520B4
:101870008D8940EA0545088A401E45EA0055087DE5
:10188000801E45EA00608D6928430243601C43F8CE
:101890002020186800F4801038B1586820F47002D5
:1018A000088A401E42EA00525A60002030BD30B51E
:1018B0000246002300240868012816D013686FF33D
:1018C0000E03D1E901052843CD6828430D6928435B
:1018D0004D6928438D692843CD6928430D6A284303
:1018E0004D6A28430343136019E013686FF30E0336
:1018F000D1E9070528434D6A2843034354686FF331
:101900000E04D1E901052843CD6828430D69284319
:101910004D6928438D6928430443136054600020B7
:1019200030BD0246506940EA4100506100207047D6
:10193000F8B506460C461546002000900027D4E96D
:1019400000010843A168491E40EA4110E16840EAED
:10195000412000900098306100F04EFD074609E0FC
:10196000681C38B125B100F047FDC01BA84201D961
:101970000320F8BDB06900F020000028F0D100BFBE
:10198000F7E770B50346154600220024012D1FD04D
:101990009A6802F070420868401E4E68761E40EA5F
:1019A00006168868401E46EA0026C868401E46EAB9
:1019B0000036088A401E46EA0046888A401E46EAEB
:1019C0000056087E401E46EA006002439A6022E00C
:1019D000DA6802F070420868401E4E68761E40EADF
:1019E00006168868401E46EA0026088A401E46EA17
:1019F0000046087E401E46EA006002439C6804F0F0
:101A00007044C868401E0603888A401E46EA00509B
:101A10000443DA609C60002070BD00001FB50446DE
:101A20000094012001900720029000200390694655
:101A3000074800F07BF8064800F024FA0A21044821
:101A400000F0DEF9024800F042F980B204B010BDA7
:101A5000A00000201FB5044600940120019007203B
:101A60000290002003906946074800F05FF806489E
:101A700000F008FA0A21044800F0C2F9024800F018
:101A800026F980B204B010BDE40000202DE9F04139
:101A900007460C460025002605E03846FFF7BEFF46
:101AA0000544701CC6B2A642F7DBB5FBF4F080B269
:101AB000BDE8F0812DE9F04107460C4600250026DF
:101AC00005E03846FFF7C6FF0544701CC6B2A642C3
:101AD000F7DBB5FBF4F080B2BDE8F08110B5044649
:101AE0000CB9012010BD1049E06A884200D000BF47
:101AF00094F83D0028B9002084F83C00204600F00E
:101B000049F9022084F83D002046FFF7F3FC00204D
:101B10002064012084F83D0000BF002084F83C00D0
:101B200000BF00BFDEE700000100000F18B502464D
:101B30000020009000BF92F83C00012801D1022053
:101B400018BD012082F83C0000BF0868092816D99A
:101B50001068C0680B780A3B03EB43040723A340DB
:101B600098431368D8600B780A3B03EB43038868FB
:101B700098401368DB6818431368D86013E0106856
:101B800000690B7803EB43040723A34098431368D1
:101B900018610B7803EB43038868984013681B694E
:101BA0001843136818614868072817D21068406BFB
:101BB0000B795B1E03EB83041F23A3409843136838
:101BC0005863088880B20B795B1E03EB830398404F
:101BD00013685B6B18431368586331E048680D283D
:101BE00017D21068006B0B79DB1F03EB83041F23F4
:101BF000A340984313681863088880B20B79DB1FF1
:101C000003EB8303984013681B6B18431368186336
:101C100016E01068C06A0B790D3B03EB83041F23A9
:101C2000A34098431368D862088880B20B790D3BB3
:101C300003EB830398401368DB6A18431368D86288
:101C40001C4B1068984208D10868122805D11A4820
:101C5000006840F48000C3F80403164B10689842F3
:101C600020D1164B0868984202D00868112819D173
:101C70001148006840F400000F4B18600F4B0868D3
:101C800098420FD10E4800680E4BB0FBF3F000EB0A
:101C900080004000009002E00098401E00900098F4
:101CA0000028F9D100BF002082F83C0000BF00BF2F
:101CB00046E700000020014004230140120000100C
:101CC0002400002040420F007047704770470146D3
:101CD0000868C06C7047000010B504460CB90120BC
:101CE00010BD1049E06A884200D000BF94F83D0062
:101CF00028B9002084F83C00204600F015F80220A6
:101D000084F83D002046FFF7F5FB00202064012009
:101D100084F83D0000BF002084F83C0000BF00BFF5
:101D2000DEE700000100000F10B586B0044600BFDA
:101D3000002000901548006840F480701349086046
:101D40000846006800F48070009000BF00BF00BF2C
:101D5000002000900D481438006840F001000B4945
:101D6000143908600846006800F00100009000BFC8
:101D700000BF10200190032002900020039001A9D1
:101D8000034800F01DFA06B010BD000044380240C0
:101D90000000024010B586B0044600BF002000904D
:101DA0001548006840F40070134908600846006850
:101DB00000F40070009000BF00BF00BF0020009042
:101DC0000D481438006840F001000B4914390860D0
:101DD0000846006800F00100009000BF00BF01202D
:101DE0000190032002900020039001A9034800F015
:101DF000E7F906B010BD0000443802400000024080
:101E000070B504460D4600262068806800F48060A6
:101E100070B12068806800F4807048B1042084F8B4
:101E20003D0000BF002084F83C0000BF012070BDD1
:101E300000F0E2FA064611E0681C78B125B100F026
:101E4000DBFA801BA84209D9032084F83D0000BFBB
:101E5000002084F83C0000BF0320E8E72068006809
:101E600000F002000228E7D194F83D00252803D1B4
:101E7000352084F83D0002E0152084F83D00002064
:101E8000D5E7000008B501460020009000BF91F89A
:101E90003C00012801D1022008BD012081F83C004E
:101EA00000BF91F83D00222803D1322081F83D0087
:101EB00002E0122081F83D000868806800F001000F
:101EC000A0B90868806840F001000A6890601B486B
:101ED00000681B4AB0FBF2F000EB4000009002E00B
:101EE0000098401E009000980028F9D100BF002003
:101EF00081F83C0000BF1348006800F01F0058B98B
:101F00000868806800F04050A8B90868806840F010
:101F100080400A6890600EE00B4A086890420AD13F
:101F20000868806800F0405028B90868806840F070
:101F300080400A6890600020AEE700002400002086
:101F400040420F000423014000200140F8B5044640
:101F50000D4616460020009000BF94F83C00012872
:101F600001D10220F8BD012084F83C0000BF2068A8
:101F7000406840F08060216848602068806840F4D4
:101F80008070216888602048A16BC8631F48A16BDE
:101F900008641F48A16B8864226802F14C01334633
:101FA0002A46A06B00F0D7F8122084F83D0000BF4D
:101FB000002084F83C0000BF2068806800F0010029
:101FC000A0B92068806840F001002168886011484D
:101FD00000681149B0FBF1F000EB4000009002E016
:101FE0000098401E009000980028F9D12068806871
:101FF00000F0405028B92068806840F08040216897
:1020000088600020AEE70000A5140008E514000871
:10201000C91400082400002040420F0070B5044697
:102020000CB9012070BD94F83500022801D10120BF
:10203000F8E72068006820F00100216808600020AF
:102040002168086021684860216888602168C8604C
:10205000216808612120216848612046FFF762FB62
:10206000054694F854103F208840A8600020E064A2
:1020700084F8350000BF84F8340000BF00BFD1E70A
:1020800070B5044600250CB9012070BD606A00B12E
:1020900000BF022084F83500206805681848054014
:1020A000D4E901010843E1680843216908436169F3
:1020B0000843A1690843E1690843216A08430543CD
:1020C000606A042803D1D4E90B0108430543206862
:1020D00005602068456925F00705606A0543606A68
:1020E000042801D1A06A0543206845612046FFF716
:1020F00019FB0020E064012084F835000020C4E7CB
:102100003F8010F02DE9F04104460D4616461F466B
:1021100000BF94F83400012802D10220BDE8F0810C
:10212000012084F8340000BF022084F835002068C4
:10213000006820F00100216808603B4632462946CD
:102140002046FFF709FB2068006840F00100216885
:1021500008600020E2E72DE9F04104460D461646EE
:102160001F4600BF94F83400012802D10220BDE8C8
:10217000F081012084F8340000BF022084F835008B
:102180002068006820F00100216808603B46324664
:1021900029462046FFF7E0FA2068006840F01E005C
:1021A000216808602068406940F08000216848612B
:1021B0002068006840F00100216808600020D6E730
:1021C000F8B502460B460025002400200021E6E079
:1021D000012606FA01F51E6806EA0504AC4273D131
:1021E0005E68022E02D05E68122E13D1CF0802F173
:1021F000200656F827004E07F70E0F26BE40B043C4
:102200004F07FF0E1E69BE403043CF0802F1200683
:1022100046F8270010684F000326BE40B0431E79E1
:1022200006F003064F00BE40304310605E68012E8A
:1022300008D05E68022E05D05E68112E02D05E685E
:10224000122E13D190684F000326BE40B0434F00BA
:10225000DE68BE4030439060506801268E40B04337
:102260001E79C6F300168E4030435060D0684F0090
:102270000326BE40B0434F009E68BE403043D0604E
:102280005E6806F08056B6F1805FA8D100BF0026D8
:102290000096454E366846F48046434F3E603E46C3
:1022A000366806F48046009600BF00BF3F4E8F0898
:1022B00056F827008E07370F0F26BE40B0433C4E1E
:1022C000B24202D100262EE068E03A4EB24201D17D
:1022D000012628E0384EB24201D1022623E0374ED3
:1022E000B24201D103261EE0354EB24201D104268E
:1022F00019E0344EB24201D1052614E0324EB2420A
:1023000001D106260FE0314EB24201D107260AE084
:102310002F4EB24201D1082605E02E4EB24201D125
:10232000092600E00A268F073F0FBE4030431F4EAC
:102330008F0846F82700284E3068A0435E6806F4F0
:102340008036B6F5803F00D12043234E3060361DE5
:102350003068A0435E6806F40036B6F5003F00D151
:1023600020431D4E361D3060361D3068A0435E6828
:1023700006F48016B6F5801F00D12043164E0836AD
:102380003060361D3068A0435E6806F40016B6F56E
:10239000001F00D12043104E0C363060491C10291C
:1023A000FFF416AFF8BD0000443802400838014081
:1023B000000002400004024000080240000C0240FD
:1023C000001002400014024000180240001C0240AD
:1023D0000020024000240240003C014002461369F4
:1023E0000B400BB1012000E0002070470AB1816171
:1023F00001E00B04836170470148006870470000EA
:102400007400002002480068401C014908607047C1
:102410007400002010B50D48006840F400700B49AE
:1024200008600846006840F480600860084600685C
:1024300040F480700860052000F062FA0F2000F080
:1024400007F800F00DFA002010BD0000003C02402B
:1024500070B5044600F0C6FD4FF47A71B0FBF1F59B
:10246000284601F019FA00222146501E00F00AFA0F
:10247000002070BD70B504460E46154600BF94F8A6
:10248000A000012801D1022070BD012084F8A00025
:1024900000BF022084F8A10005EB850101EBC50215
:1024A00004F1380101EB820034223146FDF7E3FFED
:1024B0002A463146204604F0CFF9012021684862BF
:1024C00084F8A10000BF002084F8A00000BF00BF76
:1024D000DAE7000070B50446002500260CB901209B
:1024E00070BD94F8A10028B9002084F8A00020460F
:1024F00000F084F8022084F8A1002068806920F0B0
:10250000704021688861D4E901010843E16808430B
:102510002169084321688969084321688861206826
:1025200080683549084021688860A08A05042068D1
:102530008068A16929430843216888602068C068D1
:102540002D4908402168C860A08B05042068C06838
:10255000216A294308432168C86020680069264928
:10256000084021680861A08C050420680069A16A00
:102570002943084321680861206840691E490840D2
:1025800021684861A08D050420684069216B2943BA
:1025900008432168486194F83500050294F8360034
:1025A00006042068C06A00F07F402168C86246EADD
:1025B000050094F8341008432168C96A084321686B
:1025C000C8622068406B40F00400216848632068BE
:1025D000406B40F00200216848632068806940F049
:1025E0000100216888610020C4F8A400012084F85B
:1025F000A100002074E7000000F800F010B586B0DC
:10260000044600BF002000905748006840F08060FA
:10261000554908600846006800F08060009000BFDF
:1026200000BF00BF002000904F481438006840F4FD
:1026300000004D49143908600846006800F40000A5
:10264000009000BF00BF00BF002000900846006857
:1026500040F0020008600846006800F002000090A8
:1026600000BF00BF00BF002000900846006840F097
:10267000040008600846006800F00400009000BFF5
:1026800000BF00BF002000900846006840F0200016
:1026900008600846006800F02000009000BF00BFFE
:1026A00000BF002000900846006840F0400008602D
:1026B0000846006800F04000009000BF00BF00BF67
:1026C000002000900846006840F08000086008463E
:1026D000006800F08000009000BF00BF00BF002035
:1026E00000900846006840F4807008600846006862
:1026F00000F48070009000BF00BF402001900120D6
:10270000029003900320049001A91848FFF758FD98
:102710004FF480600190022002900020039003207B
:1027200004900E20059001A91148FFF749FD4FF4D0
:102730000C60019001A90F48FFF742FD4FF47E4065
:10274000019001A90C48FFF73BFD40F2F5600190B4
:1027500001A90A48FFF734FD8020019001A9034830
:10276000FFF72EFD06B010BD4438024000080240BD
:102770000014024000180240001C024000200240E9
:102780002DE9F04104460E461746984600BF94F8DE
:10279000A000012802D10220BDE8F081012084F8C8
:1027A000A00000BF022084F8A10008EB880000EB25
:1027B000C80104F1380000EB81052E60A86A30449E
:1027C0006860AF60E86A3844E860424629462046BF
:1027D00004F042F801202168486284F8A10000BF9B
:1027E000002084F8A00000BF00BFD5E72DE9F0412C
:1027F00005460E461746984600BF95F8A0000128EA
:1028000002D10220BDE8F081012085F8A00000BFC0
:10281000022085F8A10008EB880000EBC80105F153
:10282000380000EB810400202060206830446060A4
:102830000020A060A0683844E060A662E7624246DB
:102840002146284604F008F801202968486285F8E6
:10285000A10000BF002085F8A00000BF00BFD1E7A5
:1028600008B50020009000BF08BD00BF00F01F02A7
:10287000012191404209920002F1E022C2F80011C8
:1028800000BF70472DE9F05F80460D4616460027D1
:1028900005F0CCFB074639462A46334601F00700CF
:1028A000C0F1070ABAF1040F02D94FF0040A01E09F
:1028B000C0F1070AD14600F1040ABAF1070F02D2AB
:1028C0004FF0000A01E0A0F1030AD4464FF0010ADC
:1028D0000AFA09FAAAF1010A0AEA020A0AFA0CFA41
:1028E0004FF0010B0BFA0CFBABF1010B0BEA030BE6
:1028F0004AEA0B042146404605F0A0FBBDE8F09FE4
:1029000000BF00F00702064B19684FF6FF0319409D
:10291000044B0B4343EA0221014B196000BF70478F
:102920000CED00E00000FA0538B5002400BF0020DF
:1029300000902348006840F0805021490860084614
:10294000006800F08050009000BF00BF012001042B
:1029500091FAA1F1B1FA81F11A4A42F82100FFF788
:102960004BFD044607E0FFF747FD001BB0F57A7FFB
:1029700001D9032038BD1448406800F48030B0F518
:10298000803FF0D10120410491FAA1F1B1FA81F127
:102990000C4A42F82100FFF72FFD044607E0FFF73D
:1029A0002BFD001BB0F57A7F01D90320E2E7064832
:1029B000406800F40030B0F5003FF0D10020D9E7C6
:1029C0004038024000000E4200700040F8B5044656
:1029D00000250026207800F0010020B9207800F0C2
:1029E0000200022866D10020CC498866FFF704FD6A
:1029F000054606E0FFF700FD401B642801D90320CF
:102A0000F8BDC7480068C0F3C0600028F2D1207844
:102A100000F0010098B147F6C07191FAA1F1B1FA46
:102A200081F1606888404FF0E04292FAA2F2B2FA77
:102A300082F2A16891400843B94984310860207846
:102A400000F00200022821D1B5488430006800F06F
:102A5000E0404FF0E04191FAA1F1B1FA81F120FAA2
:102A600001F660688101207B41EA006040EA06705F
:102A7000AB4984310860AA488C30006820F01F0000
:102A8000E169491E0843A6498C3108600120A34929
:102A90008866FFF7B1FC054606E0FFF7ADFC401B7A
:102AA000642801D90320ABE79D480068C0F3C060EB
:102AB0000028F2D0207800F00400042804D0207808
:102AC00000F0080008287DD1002094490867FFF72E
:102AD00093FC054606E0FFF78FFC401B642801D9F4
:102AE00003208DE78E480068C0F340700028F2D1C3
:102AF000207800F00400042834D189488830006828
:102B000000F0E0404FF0E04191FAA1F1B1FA81F11B
:102B100020FA01F647F6C07191FAA1F1B1FA81F1FC
:102B2000206988404FF0706292FAA2F2B2FA82F203
:102B30006169914008434FF0E04191FAA1F1B1FA87
:102B400081F106FA01F10843754988310860081DD2
:102B5000006820F4F851206A401E41EA00207049C4
:102B60008C310860207800F00800082834D16C48C7
:102B70008830006800F070604FF0706191FAA1F148
:102B8000B1FA81F120FA01F647F6C07191FAA1F18C
:102B9000B1FA81F1206988404FF0706191FAA1F19A
:102BA000B1FA81F106FA01F108434FF0E04292FADE
:102BB000A2F2B2FA82F2A1699140084358498831E1
:102BC000086000E01CE0081D006820F44030616AE5
:102BD000084353498C310860012050490867FFF7CA
:102BE0000BFC054606E0FFF707FC401B642801D9F3
:102BF000032005E74A480068C0F340700028F2D07F
:102C0000207800F0200020287DD100BF0020009017
:102C100043484030006840F08050414940310860EE
:102C20000846006800F08050009000BF00BF3D489B
:102C3000006840F480703B490860FFF7DDFB054603
:102C400006E0FFF7D9FB401B642801D90320D7E633
:102C50003448006800F480700028F2D030487030AA
:102C6000006800F44070218D01F4407188424AD020
:102C70002B487030006820F4407601202A49086013
:102C80000020086026487030066006F0020098B107
:102C9000FFF7B2FB054608E0FFF7AEFB401B41F231
:102CA0008831884201D90320AAE61D4870300068A7
:102CB000C0F340000028EFD000BF208D00F440702A
:102CC000B0F5407F0CD116480830006820F4F810A9
:102CD000164AA16A1140084311490831086007E00B
:102CE0000F480830006820F4F8100D4908310860DA
:102CF0000B4870300068218DC1F30B01084308496F
:102D00007031086000BF207800F01000102803D157
:102D100094F82C0006490860002071E60000474244
:102D20000038024000700040400E4742FFFCFF0F99
:102D3000E011474270B504460E460025A7480068DA
:102D400000F00F00B0426FD2A4490E700846006830
:102D500000F00F00B04201D0012070BD207800F0DB
:102D60000200022807D19E48006820F0F000A16808
:102D700008439B490860207800F0010000283ED0FD
:102D80006068012807D1964808380068C0F34040C1
:102D9000B8B90120E1E76068022802D06068032822
:102DA00007D18F4808380068C0F3406048B9012057
:102DB000D3E78B4808380068C0F3400008B9012009
:102DC000CBE78748006820F0030061680843844926
:102DD0000860FFF711FB05466068012810D108E084
:102DE000FFF70AFB401B41F28831884201D90320DA
:102DF000B3E77B48006800F00C000428F0D1CDE078
:102E00006068022811D108E0FFF7F6FA401B41F292
:102E10008831884201D903209FE77148006800F09B
:102E20000C000828F0D1B9E024E06068032810D134
:102E300008E0FFF7E1FA401B41F28831884201D9EE
:102E400003208AE76648006800F00C000328F0D1F0
:102E5000A4E008E0FFF7D0FA401B41F28831884235
:102E600001D9032079E75E48006800F00C000028D3
:102E7000F0D193E0207800F00200022807D15848F2
:102E8000006820F0F000A1680843554908602078E8
:102E900000F00100002877D06068012807D1504871
:102EA00008380068C0F34040B8B9012055E76068B1
:102EB000022802D06068032807D149480838006812
:102EC000C0F3406048B9012047E74548083800682A
:102ED000C0F3400008B901203FE74148006820F0F6
:102EE0000300616808433E490860FFF785FA05461C
:102EF0006068012810D108E0FFF77EFA401B41F21C
:102F00008831884201D9032027E73548006800F05E
:102F10000C000428F0D137E06068022810D108E0E6
:102F2000FFF76AFA401B41F28831884201D9032039
:102F300013E72B48006800F00C000828F0D123E0CC
:102F40006068032810D108E0FFF756FA401B41F2F1
:102F50008831884201D90320FFE62148006800F04B
:102F60000C000328F0D10FE008E0FFF745FA401B02
:102F700041F28831884201D90320EEE61848006802
:102F800000F00C000028F0D114490E7008460068CB
:102F900000F00F00B04201D00120DEE6207800F002
:102FA0000400042807D10E48006820F4E050E168CE
:102FB00008430B490860207800F00800082808D171
:102FC0000748006820F46040216940EAC1000449D4
:102FD00008600F20FFF73CFA0020BEE6003C0240EC
:102FE0000838024010B500F045F80949096801F0B9
:102FF000F001F02292FAA2F2B2FA82F2D140054A2E
:10300000515CC840044908600846006810BD0000D3
:103010000838024088EC00082400002010B5FFF7B3
:10302000E1FF0749096801F4E0514FF4E05292FAD8
:10303000A2F2B2FA82F2D140024A515CC84010BDFD
:103040000838024088EC000810B5FFF7CBFF0749AD
:10305000096801F460414FF4604292FAA2F2B2FAB8
:1030600082F2D140024A515CC84010BD083802408B
:1030700088EC000870B50021002200230020274CB6
:10308000246804F00C0424B1042C04D0082C41D191
:1030900003E0234840E023483EE0204C241F2468FE
:1030A00004F03F011D4C241F246804F4800484B103
:1030B0001C4CB4FBF1F5194C241F246847F6C0766C
:1030C000344096FAA6F6B6FA86F6F44005FB04F20A
:1030D0000FE0134CB4FBF1F5104C241F246847F6A5
:1030E000C076344096FAA6F6B6FA86F6F44005FBAA
:1030F00004F20A4C241F246804F440344FF4403591
:1031000095FAA5F5B5FA85F5EC40641C6300B2FBB1
:10311000F3F001E0024800BF00BF70BD0838024074
:103120000024F40040787D0138B50446002520785D
:1031300000F00100002866D0F748006800F00C009D
:1031400004280DD0F448006800F00C00082813D1C2
:10315000F148001F006800F48000B0F5800F0BD12B
:10316000ED4808380068C0F3404000284BD0606844
:10317000002848D1012038BD0020E749891F087088
:10318000FFF73AF9054608E0FFF736F9401B41F230
:103190008831884201D90320EDE7DF48083800680C
:1031A000C0F340400028EFD12079DB49891F087027
:1031B0006068A0B1FFF720F9054608E0FFF71CF9A9
:1031C000401B41F28831884201D90320D3E7D2481D
:1031D00008380068C0F340400028EFD013E0FFF744
:1031E0000BF9054608E0FFF707F9401B41F288316B
:1031F000884201D90320BEE7C74808380068C0F3F9
:1032000040400028EFD1207800F00200022869D168
:10321000C148006800F00C0058B1BF48006800F0D9
:103220000C00082821D1BC48001F006800F4800071
:10323000D8B9B94808380068C0F3400020B1E06848
:10324000012801D0012096E7B3480838006820F033
:10325000F800F82292FAA2F2B2FA82F221699140C1
:103260000843AD49083908603CE0E06828B3012014
:10327000AA490860FFF7C0F8054606E0FFF7BCF86A
:10328000401B642801D9032075E7A348083800686B
:10329000C0F340000028F1D09F480838006820F0B3
:1032A000F800F82292FAA2F2B2FA82F22169914071
:1032B000084399490839086014E0002097490860DC
:1032C000FFF79AF8054606E0FFF796F8401B6428DA
:1032D00001D903204FE7904808380068C0F3400048
:1032E0000028F1D1207800F0080008282CD160696E
:1032F000A8B101208A490860FFF77EF8054606E07C
:10330000FFF77AF8401B642801D9032033E782488D
:103310006C300068C0F340000028F1D014E00020B9
:103320007F490860FFF768F8054606E0FFF764F894
:10333000401B642801D903201DE777486C300068E2
:10334000C0F340000028F1D1207800F004000428E8
:103350006FD100BF002000906F483830006840F007
:1033600080506D49383108600846006800F0805090
:10337000009000BF00BF6B48006840F4807069494E
:103380000860FFF739F8054606E0FFF735F8401BFF
:10339000642801D90320EEE66248006800F48070DA
:1033A0000028F2D000205C4968310870FFF724F84B
:1033B000054608E0FFF720F8401B41F288318842BB
:1033C00001D90320D7E6544868300068C0F34000B4
:1033D0000028EFD1207A504968310870A068A0B168
:1033E000FFF70AF8054608E0FFF706F8401B41F230
:1033F0008831884201D90320BDE64748683000681B
:10340000C0F340000028EFD013E0FEF7F5FF0546BB
:1034100008E0FEF7F1FF401B41F28831884201D9F4
:103420000320A8E63C4868300068C0F3400000284C
:10343000EFD1A069F0B33848006800F00C0008280C
:1034400072D0A069022850D1002034490866FEF7E6
:10345000D3FF054606E0FEF7CFFF401B642801D9E5
:10346000032088E62C4808380068C0F34060002834
:10347000F1D1D4E90701084347F6C07292FAA2F2EB
:10348000B2FA82F2616A914008430122A16AC2EB5A
:1034900051014FF4403292FAA2F2B2FA82F2914014
:1034A00008434FF0706292FAA2F2B2FA82F2E16A35
:1034B000914000E03AE008431749091F08600120E5
:1034C00016490866FEF798FF054606E0FEF794FFEA
:1034D000401B642801D903204DE60F4808380068D6
:1034E000C0F340600028F1D020E000200B490866BE
:1034F000FEF782FF054606E0FEF77EFF401B6428CC
:1035000001D9032037E6044808380068C0F340605A
:103510000028F1D10AE007E00838024000004742E5
:10352000800E474200700040012024E6002022E681
:1035300070B504460D460CB9012070BD94F82C00FE
:1035400028B9002084F82D00204600F011F8022050
:1035500084F82C00211D2068FEF7A9F92946D4E93A
:103560000002FEF70EFA012084F82C000020E4E7A8
:1035700010B586B0044600BF0020009043480068A4
:1035800040F00100414908600846006800F0010071
:10359000009000BF00BF00BF002000903B480838EB
:1035A000006840F00800394908390860084600689A
:1035B00000F00800009000BF00BF00BF0020009096
:1035C0000846006840F0100008600846006800F0F7
:1035D0001000009000BF00BF00BF00200090084610
:1035E000006840F0200008600846006800F02000F5
:1035F000009000BF00BF00BF002000900846006898
:1036000040F0400008600846006800F0400000906C
:1036100000BF00BF00BF002000900846006840F0D7
:10362000800008600846006800F08000009000BF3D
:1036300000BF2C2001900220029001200390032063
:1036400004900C20059001A91148FEF7B9FD4CF239
:103650000370019001A90F48FEF7B2FD4FF6837089
:10366000019001A90C48FEF7ABFD4FF63F00019019
:1036700001A90A48FEF7A4FD48F23710019001A9FC
:103680000748FEF79DFD06B010BD00003838024027
:10369000001C0240000C02400010024000140240D6
:1036A0000018024070B504460D4694F82C0002281C
:1036B00000D170BD022084F82C0029462068FEF756
:1036C00030F9012084F82C000020F2E770B50446A0
:1036D0000D46164694F82C00022800D170BD022039
:1036E00084F82C00324629462068FEF721F9286824
:1036F000022803D1052084F82C0002E0012084F880
:103700002C000020EAE770B504460E4615460CB9B9
:10371000012070BD94F8490028B9002084F84800C1
:10372000204600F01DF804F108012068FEF750F86B
:103730003146A2682068FEF78BF82946236BD4E94E
:103740000102FEF721F8A168206850F8210040F03E
:103750000100A268216841F822000020D9E700009A
:1037600010B586B0044600BF0020009045480068B0
:1037700040F00100434908600846006800F001007D
:10378000009000BF00BF00BF002000903D480838F7
:10379000006840F002003B490839086008460068AC
:1037A00000F00200009000BF00BF00BF00200090AA
:1037B0000846006840F0080008600846006800F00D
:1037C0000800009000BF00BF00BF00200090084626
:1037D000006840F0100008600846006800F0100023
:1037E000009000BF00BF00BF0020009008460068A6
:1037F00040F0800008600846006800F080000090FB
:1038000000BF00BF00BF002000901E48006840F0CD
:1038100001001C4908600846006800F001000090A3
:1038200000BF00BF88150190012002900020039086
:103830000320049001A91448FEF7C2FC1020019057
:1038400001200290002003900320049001A90F485A
:10385000FEF7B6FC4CF6B3700190022002900120F6
:103860000390032004900C20059001A90848FEF75E
:10387000A7FC4FF68070019001A90648FEF7A0FC56
:1038800006B010BD3838024000040240001C02405F
:10389000000C02400010024070B504462546681E28
:1038A000B0F1807F01D301200FE0681E4FF0E021CE
:1038B00048610F214FF0FF3004F0C0FB00204FF0B3
:1038C000E021886107200861002070BD70477047C3
:1038D000704710B5044620680069C0F34000D8B1B5
:1038E0002068C068C0F34000B0B16FF002002168EA
:1038F0000861012020762068806900F0030018B17B
:103900002046FFF7E5FF05E0204600F0ADF8204631
:1039100000F0ABF80020207620680069C0F380003A
:10392000D8B12068C068C0F38000B0B16FF0040067
:1039300021680861022020762068806900F44070C8
:1039400018B12046FFF7C4FF05E0204600F08CF8D0
:10395000204600F08AF80020207620680069C0F335
:10396000C000D8B12068C068C0F3C000B0B16FF02B
:10397000080021680861042020762068C06900F0F2
:10398000030018B12046FFF7A3FF05E0204600F032
:103990006BF8204600F069F8002020762068006966
:1039A000C0F30010D8B12068C068C0F30010B0B1F7
:1039B0006FF0100021680861082020762068C06937
:1039C00000F4407018B12046FFF782FF05E0204662
:1039D00000F04AF8204600F048F8002020762068E1
:1039E000006900F0010058B12068C06800F00100D3
:1039F00030B16FF0010021680861204600F036F810
:103A000020680069C0F3C01058B12068C068C0F3D6
:103A1000C01030B16FF08000216808612046FFF7C8
:103A200055FF20680069C0F3801058B12068C06855
:103A3000C0F3801030B16FF040002168086120466B
:103A400000F03CF820680069C0F3401058B12068CD
:103A5000C068C0F3401030B16FF0200021680861E9
:103A60002046FFF734FF10BD704770470E4988426B
:103A700019D10E49096809B9012100E000210B4A5A
:103A800011600B49D1F89C1209B9012100E0002115
:103A9000084A11600649D1F89C1209B9012100E0D9
:103AA0000021054A11607047C4020020B8824042DC
:103AB000008042429C8242428C02444270477047DE
:103AC000014691F839007047F8B5044600250026F4
:103AD0002068006800F001052068C06800F4807666
:103AE0007DB176B100BF0020009020680068009092
:103AF00020684068009000BF00BFE06B40F001000C
:103B0000E06320680068C0F340052068406900F069
:103B100001067DB176B100BF0020009020680068EA
:103B2000009020684068009000BF00BFE06B40F04C
:103B30000400E06320680068C0F3800520684069E5
:103B400000F001067DB176B100BF00200090206832
:103B50000068009020684068009000BF00BFE06BE4
:103B600040F00200E06320680068C0F3C0052068F0
:103B7000406900F001067DB176B100BF00200090E1
:103B800020680068009020684068009000BF00BF77
:103B9000E06B40F00800E06320680068C0F3401567
:103BA0002068C06800F020061DB116B1204604F060
:103BB000CFFC20680068C0F3C0152068C06800F022
:103BC00080061DB116B1204604F032FE2068006860
:103BD000C0F380152068C06800F040061DB116B122
:103BE000204604F09DFCE06B28B1012084F83900E8
:103BF0002046FFF764FFF8BD10B504460CB901205C
:103C000010BDA06900B100E000BF94F8390028B9E8
:103C1000002084F83800204600F026F8022084F8BE
:103C200039002068C06820F400502168C860204630
:103C300004F0ECFC2068006920F4904021680861E1
:103C40002068406920F02A00216848612068C06827
:103C500040F400502168C8600020E063012084F82F
:103C600039000020CCE7000010B586B004462A4990
:103C7000206888424DD100BF00200090274800688E
:103C800040F00100254908600846006800F0010086
:103C9000009000BF00BF00BF0020009008460068F1
:103CA00040F0010008600846006800F00100009044
:103CB00000BF00BF00BF002000901848143000680B
:103CC00040F010001549143108600846006800F003
:103CD0001000009000BF00BF481501900220029024
:103CE00001200390022004900720059001A90C48B0
:103CF000FEF766FA4FF48060019001A90848FEF7CC
:103D00005FFA2520FEF7B1FD032211462520FEF7BC
:103D1000B9FD06B010BD000000100140303802406F
:103D20000000024030B50346002493F83940012CCE
:103D300001D0122C37D101B10AB9012030BD00BF2A
:103D400093F83800012801D10220F7E7012083F819
:103D5000380000BF99629A85DA850020D86393F80D
:103D60003900122803D1322083F8390002E02220E2
:103D700083F839001868C06840F480701D68E860F6
:103D80001868406940F001001D68686100BF0020AC
:103D900083F8380000BF1868C06840F020001D6834
:103DA000E8600020CAE70220C8E700001D4A016859
:103DB000914236D11C49098801F4004189BB1A4956
:103DC000098801F4804171B1184909780A2903D0A2
:103DD0000021154A118024E01349098841F400416B
:103DE000114A11801DE0114909780D2906D10E49AB
:103DF000098841F480410C4A118012E00B4909788E
:103E0000094A1288C2F30D02094B995406490988E0
:103E1000491C054A118011460988C72901DD002186
:103E20001180704700100140580000205A00002007
:103E300000030020704700BFFEE7000010B50446F5
:103E4000012C01D12C4908702B480078002837D06C
:103E500040212A48FEF7C2FA78B110212848FEF71F
:103E6000BDFA50B140212648FEF7B8FA28B14FF408
:103E700000712348FEF7B2FA10BB052004F098FD4C
:103E800000201D49087040211C48FEF7A7FA08B918
:103E9000012010BD10211A48FEF7A0FA08B902202F
:103EA000F7E740211648FEF799FA08B90320F0E732
:103EB0004FF400711248FEF791FAD8B90420E8E7F0
:103EC00040210E48FEF78AFA012813D110210C4830
:103ED000FEF784FA01280DD140210948FEF77EFA49
:103EE000012807D141020648FEF778FA012801D1DE
:103EF000014908700020CCE770000020000C02404F
:103F00000004024038B504460748006818B120464E
:103F100002F012F807E00548009443880288002167
:103F2000084600F00FFA38BD70020020780100202A
:103F30008B490872032842D1898848F25252914233
:103F40000ED14FF4A071864A1180F02151802C21AE
:103F500051812A2191812B21D1816021D180FDE0E5
:103F60007F49898845F2084291420FD14FF4A071F0
:103F70007B4A1180F02151802221518120219181A1
:103F80002121D18141F20801D180E7E0744989887B
:103F900045F210529142E2D14FF44871704A1180BB
:103FA0004FF4F07151804FF4305151814FF428514A
:103FB00091814FF42C51D181A021D180CEE00428F1
:103FC00043D16749898848F2525291420ED14FF449
:103FD000A071634A1180F02151802C2151812A2146
:103FE00091812B21D181A021D180B7E05C498988C2
:103FF00045F2084291420FD14FF4A071584A118006
:10400000F021518022215181202191812121D181D2
:1040100041F23801D180A1E05149898845F210521E
:1040200091429CD14FF448714D4A11804FF4F07188
:1040300051804FF4305151814FF4285191814FF408
:104040002C51D1816021D18088E0012843D144499D
:10405000898848F2525291420ED1F021404A118093
:104060004FF4A07151802C2151812A2191812B2163
:10407000D181C021D18071E03949898845F2084257
:1040800091420FD1F021364A11804FF4A071518036
:1040900022215181202191812121D1814FF481510F
:1040A000D1805BE02E49898845F21052914255D16A
:1040B0004FF4F0712A4A11804FF4487151804FF447
:1040C000305151814FF4285191814FF42C51D181BD
:1040D000C021D18042E02249898848F2525291425F
:1040E0000ED1F0211E4A11804FF4A07151802C2175
:1040F00051812A2191812B21D1810021D1802DE074
:104100001749898845F2084291420FD1F021144A9B
:1041100011804FF4A0715180222151812021918181
:104120002121D18141F21001D18017E00C49898809
:1041300045F21052914211D14FF4F071084A1180AA
:104140004FF4487151804FF4305151814FF4285150
:1041500091814FF42C51D1810021D1807047000012
:10416000780100202DE9FF4F85B081468A46002066
:10417000049003900798A0EB09050898A0EB0A06A5
:10418000CDF80890CDF804A0002D01DD012705E051
:104190000DB9002702E04FF0FF376D42002E02DD1F
:1041A0004FF0010806E016B94FF0000802E04FF0AA
:1041B000FF387642B54201DD2C4600E034464FF030
:1041C000000B21E0019A91B2029A90B200F022F81D
:1041D0000498284404900398304403900498A04223
:1041E00005DD0498001B049002983844029003985F
:1041F000A04205DD0398001B039001984044019004
:104200000BF101001FFA80FB601C8345DADD09B069
:10421000BDE8F08F70B504460D461148006830B116
:10422000104829460268204601F0DAFE16E00E48E2
:10423000808845F20841884206D101231A46294662
:10424000204601F015FC03E02946204601F0B8FBAA
:1042500001F054FE034800880449088070BD000046
:10426000700200203C000020780100200000026065
:1042700070B504460D4616462F48006828B13246F0
:104280002946204601F0ACFE70BD2C48808848F2DB
:104290005251884214D12949888901F0F7FD201232
:1042A00001F0E8FDE0B201F0E5FD2449C88901F024
:1042B000EDFD281201F0DEFDE8B201F0DBFD32E099
:1042C0001E48808845F20841884206D101231A46DB
:1042D0002946204601F0CCFB25E01848808845F2AD
:1042E000105188421FD11549888901F0CFFD201255
:1042F00001F0C0FD11498989491C88B201F0C6FD51
:10430000E0B201F0B7FD0D49C88901F0BFFD2812E8
:1043100001F0B0FD0949C989491C88B201F0B6FD18
:10432000E8B201F0A7FD0548408905490880891CCD
:104330000E8000BFA8E70000700200207801002076
:10434000FEFF01602DE9FC5F04460D4616461F4640
:10435000DDF830900020019083462948006840B184
:104360003B46324629462046CDF8009001F006FF34
:1043700044E02448808845F2084188421FD1781BD8
:1043800083B2301B82B22946204601F071FB01F056
:10439000B5FD4FF0000B05E01FFA89F001F0A8FD14
:1043A0000BF1010B781B311B48435845F4D81548D5
:1043B000438802880021084601F05AFB1EE0301BAA
:1043C000401C80B20190A84616E04146204601F00C
:1043D000F7FA01F093FD4FF0000A06E00A49A1F850
:1043E00000900AF101001FFA80FA01988245F5DB7E
:1043F00008F101001FFA80F8B845E6DDBDE8FC9F32
:1044000070020020780100200000026000B587B033
:1044100000BF002001902448006840F001002249BC
:1044200008600846006800F00100019000BF00BF6E
:1044300000BF002001900846006840F004000860BA
:104440000846006800F00400019000BF00BF07208C
:1044500002900120039004900320059002A91348C4
:10446000FDF7AEFE4420029002A91148FDF7A8FE18
:10447000012211460D48FDF7B9FF012202210B4828
:10448000FDF7B4FF012204210848FDF7AFFF012228
:1044900004210748FDF7AAFF002240210448FDF748
:1044A000A5FF07B000BD0000303802400000024008
:1044B0000008024000B595B000BF00200190FE4802
:1044C000006840F00200FC4908600846006800F0FF
:1044D0000200019000BF00BF00BF0020019008460D
:1044E000006840F0040008600846006800F004001E
:1044F000019000BF00BF40200290002003900220E6
:1045000004900320059002A9EC48FDF759FE4FF4F2
:104510008070029002A9EA48FDF752FE4FF48071C4
:10452000E748FDF75BFF88B94021E448FDF756FFF7
:1045300020B14FF40040E349888003E047F21600C1
:10454000E049888001F0C8FF01F01EBA4FF020401A
:10455000DD490860DD484860002088600021DA48B5
:10456000C16001611021416100218161C16141622D
:104570004FF4805181620021C1624FF48041016398
:104580000021416381634FF48011C1630F200E90BD
:1045900000200F90462010900020149004200790D7
:1045A000002008900420099000200D9007AA0EA971
:1045B000C548FFF7A8F80A2004F0FAF900224FF4E2
:1045C0000061C348FDF712FF0A2004F0F1F901224F
:1045D0001021C048FDF70AFF0A2004F0E9F9042081
:1045E00001F0E2F901F0D6F9B649888001F0D2F97C
:1045F000B4498880084680884FF6FF7101EA0020A0
:10460000B049888001F0C6F9AE4989880843AD49B0
:1046100088800846808848F25251884248D000205D
:1046200001F0C2F9A74988800846808845F2084110
:1046300088423DD04FF4704001F028FC552001F035
:1046400019FC4FF2010001F021FCAA2001F012FC3C
:104650004FF2020001F01AFC522001F00BFC4FF265
:10466000030001F013FC082001F004FC4FF20400E9
:1046700001F00CFC012001F0FDFB4FF4454001F07E
:1046800093F901F087F98F498880084680884FF6B2
:10469000FF7101EA00208B4988804CF2015001F043
:1046A00083F901F077F9874989880843854988802B
:1046B0008448808848F2525188427CD1112001F010
:1046C000E5FB782004F074F9362001F0DFFB0020D0
:1046D00001F0D0FB3A2001F0D9FB052001F0CAFB24
:1046E000B22001F0D3FB0C2001F0C4FB0C2001F040
:1046F000C1FB002001F0BEFB332001F0BBFB3320E7
:1047000001F0B8FBB72001F0C1FB352001F0B2FB8E
:10471000BB2001F0BBFB282001F0ACFBC02001F066
:10472000B5FB2C2001F0A6FBC22001F0AFFB01205D
:1047300001F0A0FBC32001F0A9FB0B2001F09AFBC4
:10474000C42001F0A3FB202001F094FBC62001F05F
:104750009DFB0F2001F08EFBD02001F097FBA420E1
:1047600001F088FBA12001F085FBE02001F08EFB29
:10477000D02001F07FFB012001F07CFB082001F03C
:1047800079FB0F2001F076FB112001F073FB2A204A
:1047900001F070FB362001F06DFB552001F06AFB43
:1047A000442001F067FB3A2001F064FB0B2001F08C
:1047B00061FB062000E04DE001F05CFB112001F000
:1047C00059FB202001F056FBE12001F05FFBD020D7
:1047D00001F050FB022001F04DFB072001F04AFBE5
:1047E0000A2001F047FB0B2001F044FB182001F0E8
:1047F00041FB342001F03EFB432001F03BFB4A200B
:1048000001F038FB2B2001F035FB1B2001F032FBBF
:104810001C2001F02FFB222001F02CFB1F2001F0B7
:1048200029FB292001F032FB2C2001F02FFB042072
:10483000FFF77EFB362001F029FB2249C88801F0F2
:1048400019FB2048438802880021084601F010F92E
:1048500001F089B81B48808845F2084188427DD123
:104860004FF48071012001F053FB4FF4E06102200E
:1048700001F04EFB41F23001032001F049FB002121
:10488000042001F045FB40F20221082001F040FB2A
:104890000021092001F03CFB00210A2001F038FB37
:1048A00000210C2001F034FB00210D2001F030FB31
:1048B00000210F2010E000003038024000080240C4
:1048C000000402407801002028010020040100A01B
:1048D000000C0240001C024001F01AFB00211020D5
:1048E00001F016FB0021112001F012FB0021122023
:1048F00001F00EFB0021132001F00AFBC82004F098
:1049000057F80721112001F003FB322004F050F882
:1049100041F2B021102001F0FBFA322004F048F8F7
:1049200040F2BD11122001F0F3FA322004F040F8F9
:104930004FF4A051132001F0EBFA0E21292001F0D1
:10494000E7FA322004F034F80021202001F0E0FAE8
:1049500040F23F11212001F0DBFA00E0B3E040F625
:104960000D31302001F0D4FA41F62311312001F04D
:10497000CFFA41F62641322001F0CAFA42F21C6118
:10498000332001F0C5FA42F21941342001F0C0FA97
:1049900040F60B51352001F0BBFA41F206013620FA
:1049A00001F0B6FA4FF4C261372001F0B1FA40F2DB
:1049B0000671382001F0ACFA4FF44171392001F052
:1049C000A7FA40F605613A2001F0A2FA40F601612B
:1049D0003B2001F09DFA4FF487713C2001F098FADA
:1049E00040F20E513D2001F093FA40F203413E2087
:1049F00001F08EFA40F207613F2001F089FA0021B0
:104A0000502001F085FAEF21512001F081FA0021B8
:104A1000522001F07DFA40F23F11532001F078FA64
:104A20004FF42741602001F073FA0121612001F069
:104A30006FFA00216A2001F06BFA0021802001F05A
:104A400067FA0021812001F063FA0021822001F041
:104A50005FFA0021832001F05BFA0021842001F03D
:104A600057FA0021852001F053FA1021902001F01F
:104A70004FFA0021922001F04BFA0321932001F01C
:104A800047FA4FF48871952001F042FA00219720EF
:104A900001F03EFA0021982001F03AFA0420FFF7D5
:104AA00047FAFE48C188032001F032FA4FF48971B9
:104AB000072001F02DFAF9484388028800210846B2
:104AC00000F0D6FFC4E6F548808845F210518842D0
:104AD000F8D1322003F06CFF55214FF4704001F003
:104AE00017FAAA214FF2010001F012FA52214FF2F7
:104AF000020001F00DFA08214FF2030001F008FA5C
:104B000001214FF2040001F003FA86214BF6014027
:104B100001F0FEF96A214BF6024001F0F9F9862115
:104B20004BF6015001F0F4F96A214BF6025001F006
:104B3000EFF967214BF6016001F0EAF900214FF42B
:104B4000514001F0E5F95D214DF2011001F0E0F96D
:104B500000214DF2021001F0DBF96B214DF2031040
:104B600001F0D6F900214DF2041001F0D1F98421B1
:104B70004DF2051001F0CCF900214DF2061001F0C4
:104B8000C7F99C214DF2071001F0C2F900214DF246
:104B9000081001F0BDF9B1214DF2091001F0B8F98A
:104BA00000214DF20A1001F0B3F9D9214DF20B109A
:104BB00001F0AEF900214DF20C1001F0A9F9FD2130
:104BC0004DF20D1001F0A4F901214DF20E1001F08B
:104BD0009FF938214DF20F1001F09AF901214DF2A1
:104BE000101001F095F968214DF2111001F090F9C3
:104BF00001214DF2121001F08BF9B9214DF2131081
:104C000001F086F901214DF2141001F081F9FB2128
:104C10004DF2151001F07CF902214DF2161001F051
:104C200077F963214DF2171001F072F902214DF26C
:104C3000181001F06DF9B9214DF2191001F068F961
:104C400002214DF21A1001F063F9BB214DF21B1045
:104C500001F05EF903214DF21C1001F059F9032116
:104C60004DF21D1001F054F903214DF21E1001F018
:104C70004FF946214DF21F1001F04AF903214DF280
:104C8000201001F045F969214DF2211001F040F9A1
:104C900003214DF2221001F03BF98F214DF2231038
:104CA00001F036F903214DF2241001F031F9A4216D
:104CB0004DF2251001F02CF903214DF2261001F0E0
:104CC00027F9B9214DF2271001F022F903214DF205
:104CD000281001F01DF9C7214DF2291001F018F933
:104CE00003214DF22A1001F013F9C9214DF22B10C6
:104CF00001F00EF903214DF22C1001F009F9CB213E
:104D00004DF22D1001F004F903214DF22E1001F0A7
:104D1000FFF8CB214DF22F1001F0FAF803214DF2EC
:104D2000301001F0F5F8CB214DF2311001F0F0F820
:104D300003214DF2321001F0EBF8CC214DF233108B
:104D400001F0E6F800214FF4524001F0E1F85D2156
:104D50004DF2012001F0DCF800214DF2022001F0BB
:104D6000D7F86B214DF2032001F0D2F800214DF26B
:104D7000042001F0CDF884214DF2052001F0C8F89F
:104D800000214DF2062001F0C3F89C214DF20720CE
:104D900001F0BEF800214DF2082001F0B9F8B12170
:104DA0004DF2092001F0B4F800214DF20A2001F083
:104DB000AFF8D9214DF20B2001F0AAF800214DF2F5
:104DC0000C2001F0A5F8FD214DF20D2001F0A0F816
:104DD00001214DF20E2001F09BF838214DF20F20F9
:104DE00001F096F801214DF2102001F091F86821B0
:104DF0004DF2112001F08CF801214DF2122001F04A
:104E000087F8B9214DF2132001F082F801214DF20B
:104E1000142001F07DF8FB214DF2152001F078F807
:104E200002214DF2162001F073F863214DF2172094
:104E300001F06EF802214DF2182001F069F8B92155
:104E40004DF2192001F064F802214DF21A2001F010
:104E50005FF8BB214DF21B2001F05AF803214DF2FF
:104E60001C2001F055F803214DF21D2001F050F8EF
:104E700003214DF21E2001F04BF846214DF21F2078
:104E800001F046F803214DF2202001F041F869219C
:104E90004DF2212001F03CF8032101E078010020CF
:104EA0004DF2222001F034F88F214DF2232001F041
:104EB0002FF803214DF2242001F02AF8A4214DF20D
:104EC000252001F025F803214DF2262001F020F8DD
:104ED000B9214DF2272001F01BF803214DF22820C3
:104EE00001F016F8C7214DF2292001F011F8032135
:104EF0004DF22A2001F00CF8C9214DF22B2001F0CF
:104F000007F803214DF22C2001F002F8CB214DF2DD
:104F10002D2000F0FDFF03214DF22E2000F0F8FFC0
:104F2000CB214DF22F2000F0F3FF03214DF2302072
:104F300000F0EEFFCB214DF2312000F0E9FF03211C
:104F40004DF2322000F0E4FFCC214DF2332000F08E
:104F5000DFFF00214FF4534000F0DAFF5D214DF2F6
:104F6000013000F0D5FF00214DF2023000F0D0FFFB
:104F70006B214DF2033000F0CBFF00214DF20430E5
:104F800000F0C6FF84214DF2053000F0C1FF002182
:104F90004DF2063000F0BCFF9C214DF2073000F0CE
:104FA000B7FF00214DF2083000F0B2FFB1214DF201
:104FB000093000F0ADFF00214DF20A3000F0A8FFEB
:104FC000D9214DF20B3000F0A3FF00214DF20C303F
:104FD00000F09EFFFD214DF20D3000F099FF012100
:104FE0004DF20E3000F094FF38214DF20F3000F0FA
:104FF0008FFF01214DF2103000F08AFF68214DF241
:10500000113000F085FF01214DF2123000F080FFD9
:10501000B9214DF2133000F07BFF01214DF2143025
:1050200000F076FFFB214DF2153000F071FF0221F8
:105030004DF2163000F06CFF63214DF2173000F096
:1050400067FF02214DF2183000F062FFB9214DF2E6
:10505000193000F05DFF02214DF21A3000F058FFC8
:10506000BB214DF21B3000F053FF03214DF21C30E9
:1050700000F04EFF03214DF21D3000F049FF0321E7
:105080004DF21E3000F044FF46214DF21F3000F07B
:105090003FFF03214DF2203000F03AFF69214DF22D
:1050A000213000F035FF03214DF2223000F030FFB7
:1050B0008F214DF2233000F02BFF03214DF22430DD
:1050C00000F026FFA4214DF2253000F021FF03213E
:1050D0004DF2263000F01CFFB9214DF2273000F0D0
:1050E00017FF03214DF2283000F012FFC7214DF2C7
:1050F000293000F00DFF03214DF22A3000F008FFA7
:10510000C9214DF22B3000F003FF03214DF22C306A
:1051100000F0FEFECB214DF22D3000F0F9FE032110
:105120004DF22E3000F0F4FECB214DF22F3000F086
:10513000EFFE03214DF2303000F0EAFECB214DF2BC
:10514000313000F0E5FE03214DF2323000F0E0FE98
:10515000CC214DF2333000F0DBFE00214FF45440FF
:1051600000F0D6FE5D214DF2014000F0D1FE00219D
:105170004DF2024000F0CCFE6B214DF2034000F0F6
:10518000C7FE00214DF2044000F0C2FE84214DF222
:10519000054000F0BDFE00214DF2064000F0B8FED3
:1051A0009C214DF2074000F0B3FE00214DF2084073
:1051B00000F0AEFEB1214DF2094000F0A9FE002141
:1051C0004DF20A4000F0A4FED9214DF20B4000F050
:1051D0009FFE00214DF20C4000F09AFEFD214DF2A1
:1051E0000D4000F095FE01214DF20E4000F090FEC2
:1051F00038214DF20F4000F08BFE01214DF210409E
:1052000000F086FE68214DF2114000F081FE012180
:105210004DF2124000F07CFEB9214DF2134000F037
:1052200077FE01214DF2144000F072FEFB214DF299
:10523000154000F06DFE02214DF2164000F068FEB0
:1052400063214DF2174000F063FE02214DF2184039
:1052500000F05EFEB9214DF2194000F059FE022126
:105260004DF21A4000F054FEBB214DF21B4000F0FD
:105270004FFE03214DF21C4000F04AFE03214DF287
:105280001D4000F045FE03214DF21E4000F040FE9F
:1052900046214DF21F4000F03BFE03214DF220401D
:1052A00000F036FE69214DF2214000F031FE03216D
:1052B0004DF2224000F02CFE8F214DF2234000F0F1
:1052C00027FE03214DF2244000F022FEA4214DF2DE
:1052D000254000F01DFE03214DF2264000F018FE8F
:1052E000B9214DF2274000F013FE03214DF2284072
:1052F00000F00EFEC7214DF2294000F009FE032107
:105300004DF22A4000F004FEC9214DF22B4000F07E
:10531000FFFD03214DF22C4000F0FAFDCB214DF2B0
:105320002D4000F0F5FD03214DF22E4000F0F0FD80
:10533000CB214DF22F4000F0EBFD03214DF2304028
:1053400000F0E6FDCB214DF2314000F0E1FD0321FC
:105350004DF2324000F0DCFDCC214DF2334000F044
:10536000D7FD00214FF4554000F0D2FD5D214DF2F4
:10537000015000F0CDFD00214DF2025000F0C8FDBB
:105380006B214DF2035000F0C3FD00214DF204509B
:1053900000F0BEFD84214DF2055000F0B9FD002162
:1053A0004DF2065000F0B4FD9C214DF2075000F084
:1053B000AFFD00214DF2085000F0AAFDB1214DF2E1
:1053C000095000F0A5FD00214DF20A5000F0A0FDAB
:1053D000D9214DF20B5000F09BFD00214DF20C50F5
:1053E00000F096FDFD214DF20D5000F091FD0121E0
:1053F0004DF20E5000F08CFD38214DF20F5000F0B0
:1054000087FD01214DF2105000F082FD68214DF220
:10541000115000F07DFD01214DF2125000F078FD99
:10542000B9214DF2135000F073FD01214DF21450DB
:1054300000F06EFDFB214DF2155000F069FD0221D8
:105440004DF2165000F064FD63214DF2175000F04C
:105450005FFD02214DF2185000F05AFDB9214DF2C6
:10546000195000F055FD02214DF21A5000F050FD88
:10547000BB214DF21B5000F04BFD03214DF21C509F
:1054800000F046FD03214DF21D5000F041FD0321C7
:105490004DF21E5000F03CFD46214DF21F5000F031
:1054A00037FD03214DF2205000F032FD69214DF20D
:1054B000215000F02DFD03214DF2225000F028FD77
:1054C0008F214DF2235000F023FD03214DF2245093
:1054D00000F01EFDA4214DF2255000F019FD03211E
:1054E0004DF2265000F014FDB9214DF2275000F086
:1054F0000FFD03214DF2285000F00AFDC7214DF2A7
:10550000295000F005FD03214DF22A5000F000FD66
:10551000C9214DF22B5000F0FBFC03214DF22C5021
:1055200000F0F6FCCB214DF22D5000F0F1FC0321F0
:105530004DF22E5000F0ECFCCB214DF22F5000F03C
:10554000E7FC03214DF2305000F0E2FCCB214DF29C
:10555000315000F0DDFC03214DF2325000F0D8FC58
:10556000CC214DF2335000F0D3FC00214FF45640D3
:1055700000F0CEFC5D214DF2016000F0C9FC00217D
:105580004DF2026000F0C4FC6B214DF2036000F0AC
:10559000BFFC00214DF2046000F0BAFC84214DF202
:1055A000056000F0B5FC00214DF2066000F0B0FC93
:1055B0009C214DF2076000F0ABFC00214DF2086029
:1055C00000F0A6FCB1214DF2096000F0A1FC002121
:1055D0004DF20A6000F09CFCD9214DF20B6000F006
:1055E00097FC00214DF20C6000F092FCFD214DF281
:1055F0000D6000F08DFC01214DF20E6000F088FC82
:1056000038214DF20F6000F083FC01214DF2106053
:1056100000F07EFC68214DF2116000F079FC012160
:105620004DF2126000F074FCB9214DF2136000F0ED
:105630006FFC01214DF2146000F06AFCFB214DF279
:10564000156000F065FC02214DF2166000F060FC70
:1056500063214DF2176000F05BFC02214DF21860EF
:1056600000F056FCB9214DF2196000F051FC022106
:105670004DF21A6000F04CFCBB214DF21B6000F0B3
:1056800047FC03214DF21C6000F042FC03214DF267
:105690001D6000F03DFC03214DF21E6000F038FC5F
:1056A00046214DF21F6000F033FC03214DF22060D3
:1056B00000F02EFC69214DF2216000F029FC03214D
:1056C0004DF2226000F024FC8F214DF2236000F0A7
:1056D0001FFC03214DF2246000F01AFCA4214DF2BE
:1056E000256000F015FC03214DF2266000F010FC4F
:1056F000B9214DF2276000F00BFC03214DF2286028
:1057000000F006FCC7214DF2296000F001FC0321E6
:105710004DF22A6000F0FCFBC9214DF22B6000F035
:10572000F7FB03214DF22C6000F0F2FBCB214DF290
:105730002D6000F0EDFB03214DF22E6000F0E8FB40
:10574000CB214DF22F6000F0E3FB03214DF23060DE
:1057500000F0DEFBCB214DF2316000F0D9FB0321DC
:105760004DF2326000F0D4FBCC214DF2336000F0FA
:10577000CFFB24214FF43A4000F0CAFB24214BF622
:10578000012000F0C5FB24214BF6022000F0C0FBF5
:1057900024214FF4394000F0BBFB24214BF60110CB
:1057A00000F0B6FB24214BF6021000F0B1FB5521AE
:1057B0004FF4704000F0ACFBAA214FF2010000F062
:1057C000A7FB52214FF2020000F0A2FB08214FF28A
:1057D000030000F09DFB00214FF2040000F098FB55
:1057E000CC214FF4314000F093FB05214FF43C40B5
:1057F00000F08EFB05214BF6014000F089FB0521EE
:105800004BF6024000F084FB01214FF4384000F0D9
:105810007FFB03214BF6010000F07AFB03214BF6DE
:10582000020000F075FB03214BF6030000F070FB53
:1058300007214BF6025000F06BFB31214BF6035071
:1058400000F066FB07214BF6026000F061FB31219E
:105850004BF6036000F05CFB07214BF6027000F092
:1058600057FB31214BF6037000F052FBAA214FF495
:105870007F4000F04DFB55214FF6017000F048FBD2
:1058800025214FF6027000F043FB01214FF6037013
:1058900000F03EFB11214FF2043000F039FB1021E3
:1058A0004FF2063000F034FB00214FF2083000F0D8
:1058B0002FFB00214FF4545000F02AFB55214FF4E8
:1058C000685000F025FB00214FF4285000F020FB29
:1058D000002142F6012000F01BFB012142F60220CC
:1058E00000F016FBDF2142F6032000F011FB00213F
:1058F0004FF42C5000F00CFB002142F6013000F078
:1059000007FB032142F6023000F002FB1F2142F6A2
:10591000033000F0FDFA4FF4885000F0B7FA0A2087
:1059200003F046F84FF4245000F0B0FA052003F0DD
:105930003FF855214FF4685000F0EAFA60214FF427
:10594000585000F0E5FA0420FEF7F2FA0F48C1883B
:105950004FF4585000F0DCFA0C48438802880021CC
:10596000084600F085F80948808845F210518842C1
:1059700003D101200649086002E0002004490860C4
:105980004FF6FF70FEF7BEFA15B000BD780100209B
:10599000A082404208B5034800880090BDF800008E
:1059A00008BD00000000026010B50446204600F06B
:1059B0006DFA052003F008F8FFF7ECFF10BD0000BA
:1059C00030B504460D462948808848F25251884235
:1059D00014D12649888900F059FA201200F04AFAB9
:1059E000E0B200F047FA2149C88900F04FFA2812C6
:1059F00000F040FAE8B200F03DFA36E01B4880883B
:105A000045F2084188420AD118498889214600F0A8
:105A10007FFA1649C889294600F07AFA25E013482A
:105A2000808845F2105188421FD11049888900F0C2
:105A30002DFA201200F01EFA0C498989491C88B2FF
:105A400000F024FAE0B200F015FA0849C88900F025
:105A50001DFA281200F00EFA0449C989491C88B2BF
:105A600000F014FAE8B200F005FA30BD7801002029
:105A70002DE9FC4F04460D46904699460026B24655
:105A80000027B3460020019000908A48808848F2A1
:105A90005251884232D1264604EB0800401E1FFABC
:105AA00080FA2F4605EB0900401E1FFA80FB019685
:105AB00000978049888900F0E9F9301200F0DAF99E
:105AC000F0B200F0D7F94FEA2A2000F0D3F90AF03B
:105AD000FF0000F0CFF97749C88900F0D7F93812F4
